{
  "_format": "hh-sol-artifact-1",
  "contractName": "Faucet",
  "sourceName": "contracts/Faucet.sol",
  "abi": [
    {
      "inputs": [
        {
          "internalType": "address",
          "name": "tokenAddress",
          "type": "address"
        }
      ],
      "stateMutability": "nonpayable",
      "type": "constructor"
    },
    {
      "anonymous": false,
      "inputs": [
        {
          "indexed": true,
          "internalType": "address",
          "name": "to",
          "type": "address"
        },
        {
          "indexed": false,
          "internalType": "uint256",
          "name": "amount",
          "type": "uint256"
        }
      ],
      "name": "Dripped",
      "type": "event"
    },
    {
      "inputs": [],
      "name": "claim",
      "outputs": [],
      "stateMutability": "nonpayable",
      "type": "function"
    },
    {
      "inputs": [],
      "name": "dripAmount",
      "outputs": [
        {
          "internalType": "uint256",
          "name": "",
          "type": "uint256"
        }
      ],
      "stateMutability": "view",
      "type": "function"
    },
    {
      "inputs": [
        {
          "internalType": "address",
          "name": "",
          "type": "address"
        }
      ],
      "name": "lastClaimBlock",
      "outputs": [
        {
          "internalType": "uint256",
          "name": "",
          "type": "uint256"
        }
      ],
      "stateMutability": "view",
      "type": "function"
    },
    {
      "inputs": [],
      "name": "token",
      "outputs": [
        {
          "internalType": "contract IERC20",
          "name": "",
          "type": "address"
        }
      ],
      "stateMutability": "view",
      "type": "function"
    }
  ],
  "bytecode": "0x608060405268056bc75e2d6310000060015534801561001d57600080fd5b50604051610831380380610831833981810160405281019061003f91906100e8565b806000806101000a81548173ffffffffffffffffffffffffffffffffffffffff021916908373ffffffffffffffffffffffffffffffffffffffff16021790555050610115565b600080fd5b600073ffffffffffffffffffffffffffffffffffffffff82169050919050565b60006100b58261008a565b9050919050565b6100c5816100aa565b81146100d057600080fd5b50565b6000815190506100e2816100bc565b92915050565b6000602082840312156100fe576100fd610085565b5b600061010c848285016100d3565b91505092915050565b61070d806101246000396000f3fe608060405234801561001057600080fd5b506004361061004c5760003560e01c806335a1529b146100515780634e71d92d1461006f578063e93a6c9014610079578063fc0c546a146100a9575b600080fd5b6100596100c7565b60405161006691906103b8565b60405180910390f35b6100776100cd565b005b610093600480360381019061008e9190610436565b610363565b6040516100a091906103b8565b60405180910390f35b6100b161037b565b6040516100be91906104c2565b60405180910390f35b60015481565b43600260003373ffffffffffffffffffffffffffffffffffffffff1673ffffffffffffffffffffffffffffffffffffffff168152602001908152602001600020541061014e576040517f08c379a00000000000000000000000000000000000000000000000000000000081526004016101459061053a565b60405180910390fd5b60015460008054906101000a900473ffffffffffffffffffffffffffffffffffffffff1673ffffffffffffffffffffffffffffffffffffffff166370a08231306040518263ffffffff1660e01b81526004016101aa9190610569565b602060405180830381865afa1580156101c7573d6000803e3d6000fd5b505050506040513d601f19601f820116820180604052508101906101eb91906105b0565b101561022c576040517f08c379a000000000000000000000000000000000000000000000000000000000815260040161022390610629565b60405180910390fd5b43600260003373ffffffffffffffffffffffffffffffffffffffff1673ffffffffffffffffffffffffffffffffffffffff1681526020019081526020016000208190555060008054906101000a900473ffffffffffffffffffffffffffffffffffffffff1673ffffffffffffffffffffffffffffffffffffffff1663a9059cbb336001546040518363ffffffff1660e01b81526004016102cd929190610649565b6020604051808303816000875af11580156102ec573d6000803e3d6000fd5b505050506040513d601f19601f8201168201806040525081019061031091906106aa565b503373ffffffffffffffffffffffffffffffffffffffff167f0daf449977d5acafa35195e10b3eb92f97839892a6653afaba222379b58d8a9b60015460405161035991906103b8565b60405180910390a2565b60026020528060005260406000206000915090505481565b60008054906101000a900473ffffffffffffffffffffffffffffffffffffffff1681565b6000819050919050565b6103b28161039f565b82525050565b60006020820190506103cd60008301846103a9565b92915050565b600080fd5b600073ffffffffffffffffffffffffffffffffffffffff82169050919050565b6000610403826103d8565b9050919050565b610413816103f8565b811461041e57600080fd5b50565b6000813590506104308161040a565b92915050565b60006020828403121561044c5761044b6103d3565b5b600061045a84828501610421565b91505092915050565b6000819050919050565b600061048861048361047e846103d8565b610463565b6103d8565b9050919050565b600061049a8261046d565b9050919050565b60006104ac8261048f565b9050919050565b6104bc816104a1565b82525050565b60006020820190506104d760008301846104b3565b92915050565b600082825260208201905092915050565b7f416c726561647920636c61696d6564207468697320626c6f636b2e0000000000600082015250565b6000610524601b836104dd565b915061052f826104ee565b602082019050919050565b6000602082019050818103600083015261055381610517565b9050919050565b610563816103f8565b82525050565b600060208201905061057e600083018461055a565b92915050565b61058d8161039f565b811461059857600080fd5b50565b6000815190506105aa81610584565b92915050565b6000602082840312156105c6576105c56103d3565b5b60006105d48482850161059b565b91505092915050565b7f46617563657420656d7074792e00000000000000000000000000000000000000600082015250565b6000610613600d836104dd565b915061061e826105dd565b602082019050919050565b6000602082019050818103600083015261064281610606565b9050919050565b600060408201905061065e600083018561055a565b61066b60208301846103a9565b9392505050565b60008115159050919050565b61068781610672565b811461069257600080fd5b50565b6000815190506106a48161067e565b92915050565b6000602082840312156106c0576106bf6103d3565b5b60006106ce84828501610695565b9150509291505056fea2646970667358221220b19467928fcb288935d564313d5adf17a73abb16c0814ec7a1eda71a37fc629664736f6c634300081c0033",
  "linkReferences": {},
  "deployedLinkReferences": {}
}